{
  "_format": "hh-sol-artifact-1",
  "contractName": "CommunityLending",
  "sourceName": "contracts/CommunityLending.sol",
  "abi": [
    {
      "inputs": [
        {
          "internalType": "address",
          "name": "_user",
          "type": "address"
        }
      ],
      "name": "calculateCreditScore",
      "outputs": [],
      "stateMutability": "nonpayable",
      "type": "function"
    },
    {
      "inputs": [],
      "name": "communityFunds",
      "outputs": [
        {
          "internalType": "uint256",
          "name": "",
          "type": "uint256"
        }
      ],
      "stateMutability": "view",
      "type": "function"
    },
    {
      "inputs": [],
      "name": "depositFunds",
      "outputs": [],
      "stateMutability": "payable",
      "type": "function"
    },
    {
      "inputs": [],
      "name": "getContractBalance",
      "outputs": [
        {
          "internalType": "uint256",
          "name": "",
          "type": "uint256"
        }
      ],
      "stateMutability": "view",
      "type": "function"
    },
    {
      "inputs": [
        {
          "internalType": "address",
          "name": "_wallet",
          "type": "address"
        }
      ],
      "name": "getUserProfile",
      "outputs": [
        {
          "components": [
            {
              "internalType": "address",
              "name": "wallet",
              "type": "address"
            },
            {
              "internalType": "string",
              "name": "name",
              "type": "string"
            },
            {
              "internalType": "uint256",
              "name": "creditScore",
              "type": "uint256"
            },
            {
              "internalType": "uint256",
              "name": "totalBorrowed",
              "type": "uint256"
            },
            {
              "internalType": "uint256",
              "name": "totalRepaid",
              "type": "uint256"
            }
          ],
          "internalType": "struct CommunityLending.User",
          "name": "",
          "type": "tuple"
        }
      ],
      "stateMutability": "view",
      "type": "function"
    },
    {
      "inputs": [
        {
          "internalType": "address",
          "name": "_borrower",
          "type": "address"
        },
        {
          "internalType": "uint256",
          "name": "_amount",
          "type": "uint256"
        },
        {
          "internalType": "uint256",
          "name": "_interest",
          "type": "uint256"
        },
        {
          "internalType": "uint256",
          "name": "_dueDate",
          "type": "uint256"
        }
      ],
      "name": "lendMoney",
      "outputs": [],
      "stateMutability": "nonpayable",
      "type": "function"
    },
    {
      "inputs": [
        {
          "internalType": "address",
          "name": "",
          "type": "address"
        },
        {
          "internalType": "uint256",
          "name": "",
          "type": "uint256"
        }
      ],
      "name": "loans",
      "outputs": [
        {
          "internalType": "address",
          "name": "borrower",
          "type": "address"
        },
        {
          "internalType": "uint256",
          "name": "amount",
          "type": "uint256"
        },
        {
          "internalType": "uint256",
          "name": "interest",
          "type": "uint256"
        },
        {
          "internalType": "uint256",
          "name": "dueDate",
          "type": "uint256"
        },
        {
          "internalType": "bool",
          "name": "repaid",
          "type": "bool"
        }
      ],
      "stateMutability": "view",
      "type": "function"
    },
    {
      "inputs": [
        {
          "internalType": "string",
          "name": "_name",
          "type": "string"
        }
      ],
      "name": "registerUser",
      "outputs": [],
      "stateMutability": "nonpayable",
      "type": "function"
    },
    {
      "inputs": [
        {
          "internalType": "uint256",
          "name": "_loanIndex",
          "type": "uint256"
        }
      ],
      "name": "repayLoan",
      "outputs": [],
      "stateMutability": "payable",
      "type": "function"
    },
    {
      "inputs": [
        {
          "internalType": "address",
          "name": "",
          "type": "address"
        }
      ],
      "name": "users",
      "outputs": [
        {
          "internalType": "address",
          "name": "wallet",
          "type": "address"
        },
        {
          "internalType": "string",
          "name": "name",
          "type": "string"
        },
        {
          "internalType": "uint256",
          "name": "creditScore",
          "type": "uint256"
        },
        {
          "internalType": "uint256",
          "name": "totalBorrowed",
          "type": "uint256"
        },
        {
          "internalType": "uint256",
          "name": "totalRepaid",
          "type": "uint256"
        }
      ],
      "stateMutability": "view",
      "type": "function"
    },
    {
      "inputs": [
        {
          "internalType": "uint256",
          "name": "_amount",
          "type": "uint256"
        }
      ],
      "name": "withdrawFunds",
      "outputs": [],
      "stateMutability": "nonpayable",
      "type": "function"
    }
  ],
  "bytecode": "0x608060405234801561001057600080fd5b5061192b806100206000396000f3fe60806040526004361061009c5760003560e01c806398c61c371161006457806398c61c3714610186578063a87430ba146101c7578063ab7b1c8914610208578063b1eb320e14610224578063e2c41dbc1461024d578063f1c3753a146102575761009c565b8063155dd5ee146100a15780635caef00a146100ca5780636f9fb98a146100f5578063704f1b9414610120578063987ee15614610149575b600080fd5b3480156100ad57600080fd5b506100c860048036038101906100c39190610ef3565b610280565b005b3480156100d657600080fd5b506100df610328565b6040516100ec9190610f2f565b60405180910390f35b34801561010157600080fd5b5061010a61032e565b6040516101179190610f2f565b60405180910390f35b34801561012c57600080fd5b5061014760048036038101906101429190611090565b610336565b005b34801561015557600080fd5b50610170600480360381019061016b9190611137565b61050c565b60405161017d9190611280565b60405180910390f35b34801561019257600080fd5b506101ad60048036038101906101a891906112a2565b61066a565b6040516101be95949392919061130c565b60405180910390f35b3480156101d357600080fd5b506101ee60048036038101906101e99190611137565b6106ea565b6040516101ff9594939291906113a9565b60405180910390f35b610222600480360381019061021d9190610ef3565b6107c8565b005b34801561023057600080fd5b5061024b60048036038101906102469190611403565b610969565b005b610255610d1b565b005b34801561026357600080fd5b5061027e60048036038101906102799190611137565b610d36565b005b8060025410156102c5576040517f08c379a00000000000000000000000000000000000000000000000000000000081526004016102bc906114b6565b60405180910390fd5b80600260008282546102d79190611505565b925050819055503373ffffffffffffffffffffffffffffffffffffffff166108fc829081150290604051600060405180830381858888f19350505050158015610324573d6000803e3d6000fd5b5050565b60025481565b600047905090565b600073ffffffffffffffffffffffffffffffffffffffff166000803373ffffffffffffffffffffffffffffffffffffffff1673ffffffffffffffffffffffffffffffffffffffff16815260200190815260200160002060000160009054906101000a900473ffffffffffffffffffffffffffffffffffffffff1673ffffffffffffffffffffffffffffffffffffffff1614610406576040517f08c379a00000000000000000000000000000000000000000000000000000000081526004016103fd90611585565b60405180910390fd5b6040518060a001604052803373ffffffffffffffffffffffffffffffffffffffff168152602001828152602001606481526020016000815260200160008152506000803373ffffffffffffffffffffffffffffffffffffffff1673ffffffffffffffffffffffffffffffffffffffff16815260200190815260200160002060008201518160000160006101000a81548173ffffffffffffffffffffffffffffffffffffffff021916908373ffffffffffffffffffffffffffffffffffffffff16021790555060208201518160010190805190602001906104e7929190610dc1565b5060408201518160020155606082015181600301556080820151816004015590505050565b610514610e47565b6000808373ffffffffffffffffffffffffffffffffffffffff1673ffffffffffffffffffffffffffffffffffffffff1681526020019081526020016000206040518060a00160405290816000820160009054906101000a900473ffffffffffffffffffffffffffffffffffffffff1673ffffffffffffffffffffffffffffffffffffffff1673ffffffffffffffffffffffffffffffffffffffff1681526020016001820180546105c3906115d4565b80601f01602080910402602001604051908101604052809291908181526020018280546105ef906115d4565b801561063c5780601f106106115761010080835404028352916020019161063c565b820191906000526020600020905b81548152906001019060200180831161061f57829003601f168201915b5050505050815260200160028201548152602001600382015481526020016004820154815250509050919050565b6001602052816000526040600020818154811061068657600080fd5b9060005260206000209060050201600091509150508060000160009054906101000a900473ffffffffffffffffffffffffffffffffffffffff16908060010154908060020154908060030154908060040160009054906101000a900460ff16905085565b60006020528060005260406000206000915090508060000160009054906101000a900473ffffffffffffffffffffffffffffffffffffffff1690806001018054610733906115d4565b80601f016020809104026020016040519081016040528092919081815260200182805461075f906115d4565b80156107ac5780601f10610781576101008083540402835291602001916107ac565b820191906000526020600020905b81548152906001019060200180831161078f57829003601f168201915b5050505050908060020154908060030154908060040154905085565b6000600160003373ffffffffffffffffffffffffffffffffffffffff1673ffffffffffffffffffffffffffffffffffffffff168152602001908152602001600020828154811061081b5761081a611606565b5b906000526020600020906005020190508060040160009054906101000a900460ff161561087d576040517f08c379a000000000000000000000000000000000000000000000000000000000815260040161087490611681565b60405180910390fd5b8060020154816001015461089191906116a1565b3410156108d3576040517f08c379a00000000000000000000000000000000000000000000000000000000081526004016108ca90611743565b60405180910390fd5b60018160040160006101000a81548160ff02191690831515021790555080600101546000803373ffffffffffffffffffffffffffffffffffffffff1673ffffffffffffffffffffffffffffffffffffffff168152602001908152602001600020600401600082825461094591906116a1565b92505081905550346002600082825461095e91906116a1565b925050819055505050565b670de0b6b3a76400008361097d9190611763565b9250670de0b6b3a7640000826109939190611763565b9150600073ffffffffffffffffffffffffffffffffffffffff166000808673ffffffffffffffffffffffffffffffffffffffff1673ffffffffffffffffffffffffffffffffffffffff16815260200190815260200160002060000160009054906101000a900473ffffffffffffffffffffffffffffffffffffffff1673ffffffffffffffffffffffffffffffffffffffff161415610a66576040517f08c379a0000000000000000000000000000000000000000000000000000000008152600401610a5d90611809565b60405180910390fd5b60326000808673ffffffffffffffffffffffffffffffffffffffff1673ffffffffffffffffffffffffffffffffffffffff168152602001908152602001600020600201541015610aeb576040517f08c379a0000000000000000000000000000000000000000000000000000000008152600401610ae290611875565b60405180910390fd5b82471015610b2e576040517f08c379a0000000000000000000000000000000000000000000000000000000008152600401610b25906114b6565b60405180910390fd5b8373ffffffffffffffffffffffffffffffffffffffff166108fc849081150290604051600060405180830381858888f19350505050158015610b74573d6000803e3d6000fd5b508260026000828254610b879190611505565b92505081905550600160008573ffffffffffffffffffffffffffffffffffffffff1673ffffffffffffffffffffffffffffffffffffffff1681526020019081526020016000206040518060a001604052808673ffffffffffffffffffffffffffffffffffffffff16815260200185815260200184815260200183815260200160001515815250908060018154018082558091505060019003906000526020600020906005020160009091909190915060008201518160000160006101000a81548173ffffffffffffffffffffffffffffffffffffffff021916908373ffffffffffffffffffffffffffffffffffffffff16021790555060208201518160010155604082015181600201556060820151816003015560808201518160040160006101000a81548160ff0219169083151502179055505050826000808673ffffffffffffffffffffffffffffffffffffffff1673ffffffffffffffffffffffffffffffffffffffff1681526020019081526020016000206003016000828254610d0e91906116a1565b9250508190555050505050565b3460026000828254610d2d91906116a1565b92505081905550565b60008060008373ffffffffffffffffffffffffffffffffffffffff1673ffffffffffffffffffffffffffffffffffffffff1681526020019081526020016000209050600081600301541415610d945760648160020181905550610dbd565b806003015460648260040154610daa9190611763565b610db491906118c4565b81600201819055505b5050565b828054610dcd906115d4565b90600052602060002090601f016020900481019282610def5760008555610e36565b82601f10610e0857805160ff1916838001178555610e36565b82800160010185558215610e36579182015b82811115610e35578251825591602001919060010190610e1a565b5b509050610e439190610e8c565b5090565b6040518060a00160405280600073ffffffffffffffffffffffffffffffffffffffff168152602001606081526020016000815260200160008152602001600081525090565b5b80821115610ea5576000816000905550600101610e8d565b5090565b6000604051905090565b600080fd5b600080fd5b6000819050919050565b610ed081610ebd565b8114610edb57600080fd5b50565b600081359050610eed81610ec7565b92915050565b600060208284031215610f0957610f08610eb3565b5b6000610f1784828501610ede565b91505092915050565b610f2981610ebd565b82525050565b6000602082019050610f446000830184610f20565b92915050565b600080fd5b600080fd5b6000601f19601f8301169050919050565b7f4e487b7100000000000000000000000000000000000000000000000000000000600052604160045260246000fd5b610f9d82610f54565b810181811067ffffffffffffffff82111715610fbc57610fbb610f65565b5b80604052505050565b6000610fcf610ea9565b9050610fdb8282610f94565b919050565b600067ffffffffffffffff821115610ffb57610ffa610f65565b5b61100482610f54565b9050602081019050919050565b82818337600083830152505050565b600061103361102e84610fe0565b610fc5565b90508281526020810184848401111561104f5761104e610f4f565b5b61105a848285611011565b509392505050565b600082601f83011261107757611076610f4a565b5b8135611087848260208601611020565b91505092915050565b6000602082840312156110a6576110a5610eb3565b5b600082013567ffffffffffffffff8111156110c4576110c3610eb8565b5b6110d084828501611062565b91505092915050565b600073ffffffffffffffffffffffffffffffffffffffff82169050919050565b6000611104826110d9565b9050919050565b611114816110f9565b811461111f57600080fd5b50565b6000813590506111318161110b565b92915050565b60006020828403121561114d5761114c610eb3565b5b600061115b84828501611122565b91505092915050565b61116d816110f9565b82525050565b600081519050919050565b600082825260208201905092915050565b60005b838110156111ad578082015181840152602081019050611192565b838111156111bc576000848401525b50505050565b60006111cd82611173565b6111d7818561117e565b93506111e781856020860161118f565b6111f081610f54565b840191505092915050565b61120481610ebd565b82525050565b600060a0830160008301516112226000860182611164565b506020830151848203602086015261123a82826111c2565b915050604083015161124f60408601826111fb565b50606083015161126260608601826111fb565b50608083015161127560808601826111fb565b508091505092915050565b6000602082019050818103600083015261129a818461120a565b905092915050565b600080604083850312156112b9576112b8610eb3565b5b60006112c785828601611122565b92505060206112d885828601610ede565b9150509250929050565b6112eb816110f9565b82525050565b60008115159050919050565b611306816112f1565b82525050565b600060a08201905061132160008301886112e2565b61132e6020830187610f20565b61133b6040830186610f20565b6113486060830185610f20565b61135560808301846112fd565b9695505050505050565b600082825260208201905092915050565b600061137b82611173565b611385818561135f565b935061139581856020860161118f565b61139e81610f54565b840191505092915050565b600060a0820190506113be60008301886112e2565b81810360208301526113d08187611370565b90506113df6040830186610f20565b6113ec6060830185610f20565b6113f96080830184610f20565b9695505050505050565b6000806000806080858703121561141d5761141c610eb3565b5b600061142b87828801611122565b945050602061143c87828801610ede565b935050604061144d87828801610ede565b925050606061145e87828801610ede565b91505092959194509250565b7f496e73756666696369656e7420636f6d6d756e6974792066756e647300000000600082015250565b60006114a0601c8361135f565b91506114ab8261146a565b602082019050919050565b600060208201905081810360008301526114cf81611493565b9050919050565b7f4e487b7100000000000000000000000000000000000000000000000000000000600052601160045260246000fd5b600061151082610ebd565b915061151b83610ebd565b92508282101561152e5761152d6114d6565b5b828203905092915050565b7f5573657220616c72656164792072656769737465726564000000000000000000600082015250565b600061156f60178361135f565b915061157a82611539565b602082019050919050565b6000602082019050818103600083015261159e81611562565b9050919050565b7f4e487b7100000000000000000000000000000000000000000000000000000000600052602260045260246000fd5b600060028204905060018216806115ec57607f821691505b60208210811415611600576115ff6115a5565b5b50919050565b7f4e487b7100000000000000000000000000000000000000000000000000000000600052603260045260246000fd5b7f4c6f616e20616c72656164792072657061696400000000000000000000000000600082015250565b600061166b60138361135f565b915061167682611635565b602082019050919050565b6000602082019050818103600083015261169a8161165e565b9050919050565b60006116ac82610ebd565b91506116b783610ebd565b9250827fffffffffffffffffffffffffffffffffffffffffffffffffffffffffffffffff038211156116ec576116eb6114d6565b5b828201905092915050565b7f496e73756666696369656e742072657061796d656e7420616d6f756e74000000600082015250565b600061172d601d8361135f565b9150611738826116f7565b602082019050919050565b6000602082019050818103600083015261175c81611720565b9050919050565b600061176e82610ebd565b915061177983610ebd565b9250817fffffffffffffffffffffffffffffffffffffffffffffffffffffffffffffffff04831182151516156117b2576117b16114d6565b5b828202905092915050565b7f426f72726f776572206e6f742072656769737465726564000000000000000000600082015250565b60006117f360178361135f565b91506117fe826117bd565b602082019050919050565b60006020820190508181036000830152611822816117e6565b9050919050565b7f426f72726f77657220686173206c6f77206372656469742073636f7265000000600082015250565b600061185f601d8361135f565b915061186a82611829565b602082019050919050565b6000602082019050818103600083015261188e81611852565b9050919050565b7f4e487b7100000000000000000000000000000000000000000000000000000000600052601260045260246000fd5b60006118cf82610ebd565b91506118da83610ebd565b9250826118ea576118e9611895565b5b82820490509291505056fea2646970667358221220ee798fde9848dba4ea35d77f2262c3556d9745da681d389206dfb4852705bfc664736f6c63430008090033",
  "linkReferences": {},
  "deployedLinkReferences": {}
}