{
  "_format": "hh-sol-artifact-1",
  "contractName": "CommunityLending",
  "sourceName": "contracts/CommunityLending.sol",
  "abi": [
    {
      "inputs": [
        {
          "internalType": "uint256",
          "name": "_id",
          "type": "uint256"
        },
        {
          "internalType": "string",
          "name": "input",
          "type": "string"
        }
      ],
      "name": "checkStringMatch",
      "outputs": [
        {
          "internalType": "bool",
          "name": "",
          "type": "bool"
        }
      ],
      "stateMutability": "view",
      "type": "function"
    },
    {
      "inputs": [],
      "name": "communityFunds",
      "outputs": [
        {
          "internalType": "uint256",
          "name": "",
          "type": "uint256"
        }
      ],
      "stateMutability": "view",
      "type": "function"
    },
    {
      "inputs": [],
      "name": "depositFunds",
      "outputs": [],
      "stateMutability": "payable",
      "type": "function"
    },
    {
      "inputs": [],
      "name": "getContractBalance",
      "outputs": [
        {
          "internalType": "uint256",
          "name": "",
          "type": "uint256"
        }
      ],
      "stateMutability": "view",
      "type": "function"
    },
    {
      "inputs": [
        {
          "internalType": "address",
          "name": "_borrower",
          "type": "address"
        }
      ],
      "name": "getLoans",
      "outputs": [
        {
          "components": [
            {
              "internalType": "address",
              "name": "borrower",
              "type": "address"
            },
            {
              "internalType": "uint256",
              "name": "amount",
              "type": "uint256"
            },
            {
              "internalType": "uint256",
              "name": "interest",
              "type": "uint256"
            },
            {
              "internalType": "uint256",
              "name": "dueDate",
              "type": "uint256"
            },
            {
              "internalType": "bool",
              "name": "repaid",
              "type": "bool"
            }
          ],
          "internalType": "struct CommunityLending.Loan[]",
          "name": "",
          "type": "tuple[]"
        }
      ],
      "stateMutability": "view",
      "type": "function"
    },
    {
      "inputs": [
        {
          "internalType": "address",
          "name": "_wallet",
          "type": "address"
        }
      ],
      "name": "getUserProfile",
      "outputs": [
        {
          "components": [
            {
              "internalType": "address",
              "name": "wallet",
              "type": "address"
            },
            {
              "internalType": "string",
              "name": "name",
              "type": "string"
            },
            {
              "internalType": "uint256",
              "name": "creditScore",
              "type": "uint256"
            },
            {
              "internalType": "uint256",
              "name": "totalBorrowed",
              "type": "uint256"
            },
            {
              "internalType": "uint256",
              "name": "totalRepaid",
              "type": "uint256"
            }
          ],
          "internalType": "struct CommunityLending.User",
          "name": "",
          "type": "tuple"
        }
      ],
      "stateMutability": "view",
      "type": "function"
    },
    {
      "inputs": [
        {
          "internalType": "uint256",
          "name": "",
          "type": "uint256"
        }
      ],
      "name": "idToString",
      "outputs": [
        {
          "internalType": "string",
          "name": "",
          "type": "string"
        }
      ],
      "stateMutability": "view",
      "type": "function"
    },
    {
      "inputs": [
        {
          "internalType": "address",
          "name": "_borrower",
          "type": "address"
        },
        {
          "internalType": "uint256",
          "name": "_amount",
          "type": "uint256"
        },
        {
          "internalType": "uint256",
          "name": "_interest",
          "type": "uint256"
        },
        {
          "internalType": "uint256",
          "name": "_dueDate",
          "type": "uint256"
        }
      ],
      "name": "lendMoney",
      "outputs": [],
      "stateMutability": "nonpayable",
      "type": "function"
    },
    {
      "inputs": [
        {
          "internalType": "address",
          "name": "",
          "type": "address"
        },
        {
          "internalType": "uint256",
          "name": "",
          "type": "uint256"
        }
      ],
      "name": "loans",
      "outputs": [
        {
          "internalType": "address",
          "name": "borrower",
          "type": "address"
        },
        {
          "internalType": "uint256",
          "name": "amount",
          "type": "uint256"
        },
        {
          "internalType": "uint256",
          "name": "interest",
          "type": "uint256"
        },
        {
          "internalType": "uint256",
          "name": "dueDate",
          "type": "uint256"
        },
        {
          "internalType": "bool",
          "name": "repaid",
          "type": "bool"
        }
      ],
      "stateMutability": "view",
      "type": "function"
    },
    {
      "inputs": [
        {
          "internalType": "string",
          "name": "_name",
          "type": "string"
        }
      ],
      "name": "registerUser",
      "outputs": [],
      "stateMutability": "nonpayable",
      "type": "function"
    },
    {
      "inputs": [
        {
          "internalType": "uint256",
          "name": "_loanIndex",
          "type": "uint256"
        }
      ],
      "name": "repayLoan",
      "outputs": [],
      "stateMutability": "payable",
      "type": "function"
    },
    {
      "inputs": [
        {
          "internalType": "address",
          "name": "",
          "type": "address"
        }
      ],
      "name": "users",
      "outputs": [
        {
          "internalType": "address",
          "name": "wallet",
          "type": "address"
        },
        {
          "internalType": "string",
          "name": "name",
          "type": "string"
        },
        {
          "internalType": "uint256",
          "name": "creditScore",
          "type": "uint256"
        },
        {
          "internalType": "uint256",
          "name": "totalBorrowed",
          "type": "uint256"
        },
        {
          "internalType": "uint256",
          "name": "totalRepaid",
          "type": "uint256"
        }
      ],
      "stateMutability": "view",
      "type": "function"
    },
    {
      "inputs": [
        {
          "internalType": "uint256",
          "name": "_amount",
          "type": "uint256"
        }
      ],
      "name": "withdrawFunds",
      "outputs": [],
      "stateMutability": "payable",
      "type": "function"
    }
  ],
  "bytecode": "0x608060405234801561001057600080fd5b50611d89806100206000396000f3fe6080604052600436106100c25760003560e01c806398c61c371161007f578063b1eb320e11610059578063b1eb320e1461027a578063d11d1ea6146102a3578063d988ef20146102e0578063e2c41dbc1461031d576100c2565b806398c61c37146101dc578063a87430ba1461021d578063ab7b1c891461025e576100c2565b8063155dd5ee146100c75780635caef00a146100e35780636f9fb98a1461010e578063704f1b94146101395780639191697214610162578063987ee1561461019f575b600080fd5b6100e160048036038101906100dc919061112c565b610327565b005b3480156100ef57600080fd5b506100f86103cf565b6040516101059190611168565b60405180910390f35b34801561011a57600080fd5b506101236103d5565b6040516101309190611168565b60405180910390f35b34801561014557600080fd5b50610160600480360381019061015b91906112c9565b6103dd565b005b34801561016e57600080fd5b5061018960048036038101906101849190611312565b6105b3565b6040516101969190611389565b60405180910390f35b3480156101ab57600080fd5b506101c660048036038101906101c19190611402565b61062f565b6040516101d3919061154b565b60405180910390f35b3480156101e857600080fd5b5061020360048036038101906101fe919061156d565b61078d565b6040516102149594939291906115bc565b60405180910390f35b34801561022957600080fd5b50610244600480360381019061023f9190611402565b61080d565b604051610255959493929190611659565b60405180910390f35b6102786004803603810190610273919061112c565b6108eb565b005b34801561028657600080fd5b506102a1600480360381019061029c91906116b3565b610a8c565b005b3480156102af57600080fd5b506102ca60048036038101906102c5919061112c565b610e12565b6040516102d7919061171a565b60405180910390f35b3480156102ec57600080fd5b5061030760048036038101906103029190611402565b610eb2565b6040516103149190611862565b60405180910390f35b610325610fdf565b005b80600254101561036c576040517f08c379a0000000000000000000000000000000000000000000000000000000008152600401610363906118d0565b60405180910390fd5b806002600082825461037e919061191f565b925050819055503373ffffffffffffffffffffffffffffffffffffffff166108fc829081150290604051600060405180830381858888f193505050501580156103cb573d6000803e3d6000fd5b5050565b60025481565b600047905090565b600073ffffffffffffffffffffffffffffffffffffffff166000803373ffffffffffffffffffffffffffffffffffffffff1673ffffffffffffffffffffffffffffffffffffffff16815260200190815260200160002060000160009054906101000a900473ffffffffffffffffffffffffffffffffffffffff1673ffffffffffffffffffffffffffffffffffffffff16146104ad576040517f08c379a00000000000000000000000000000000000000000000000000000000081526004016104a49061199f565b60405180910390fd5b6040518060a001604052803373ffffffffffffffffffffffffffffffffffffffff168152602001828152602001606481526020016000815260200160008152506000803373ffffffffffffffffffffffffffffffffffffffff1673ffffffffffffffffffffffffffffffffffffffff16815260200190815260200160002060008201518160000160006101000a81548173ffffffffffffffffffffffffffffffffffffffff021916908373ffffffffffffffffffffffffffffffffffffffff160217905550602082015181600101908051906020019061058e929190610ffa565b5060408201518160020155606082015181600301556080820151816004015590505050565b6000816040516020016105c691906119fb565b60405160208183030381529060405280519060200120600360008581526020019081526020016000206040516020016105ff9190611b07565b6040516020818303038152906040528051906020012014156106245760019050610629565b600090505b92915050565b610637611080565b6000808373ffffffffffffffffffffffffffffffffffffffff1673ffffffffffffffffffffffffffffffffffffffff1681526020019081526020016000206040518060a00160405290816000820160009054906101000a900473ffffffffffffffffffffffffffffffffffffffff1673ffffffffffffffffffffffffffffffffffffffff1673ffffffffffffffffffffffffffffffffffffffff1681526020016001820180546106e690611a41565b80601f016020809104026020016040519081016040528092919081815260200182805461071290611a41565b801561075f5780601f106107345761010080835404028352916020019161075f565b820191906000526020600020905b81548152906001019060200180831161074257829003601f168201915b5050505050815260200160028201548152602001600382015481526020016004820154815250509050919050565b600160205281600052604060002081815481106107a957600080fd5b9060005260206000209060050201600091509150508060000160009054906101000a900473ffffffffffffffffffffffffffffffffffffffff16908060010154908060020154908060030154908060040160009054906101000a900460ff16905085565b60006020528060005260406000206000915090508060000160009054906101000a900473ffffffffffffffffffffffffffffffffffffffff169080600101805461085690611a41565b80601f016020809104026020016040519081016040528092919081815260200182805461088290611a41565b80156108cf5780601f106108a4576101008083540402835291602001916108cf565b820191906000526020600020905b8154815290600101906020018083116108b257829003601f168201915b5050505050908060020154908060030154908060040154905085565b6000600160003373ffffffffffffffffffffffffffffffffffffffff1673ffffffffffffffffffffffffffffffffffffffff168152602001908152602001600020828154811061093e5761093d611b1e565b5b906000526020600020906005020190508060040160009054906101000a900460ff16156109a0576040517f08c379a000000000000000000000000000000000000000000000000000000000815260040161099790611b99565b60405180910390fd5b806002015481600101546109b49190611bb9565b3410156109f6576040517f08c379a00000000000000000000000000000000000000000000000000000000081526004016109ed90611c5b565b60405180910390fd5b60018160040160006101000a81548160ff02191690831515021790555080600101546000803373ffffffffffffffffffffffffffffffffffffffff1673ffffffffffffffffffffffffffffffffffffffff1681526020019081526020016000206004016000828254610a689190611bb9565b925050819055503460026000828254610a819190611bb9565b925050819055505050565b600073ffffffffffffffffffffffffffffffffffffffff166000808673ffffffffffffffffffffffffffffffffffffffff1673ffffffffffffffffffffffffffffffffffffffff16815260200190815260200160002060000160009054906101000a900473ffffffffffffffffffffffffffffffffffffffff1673ffffffffffffffffffffffffffffffffffffffff161415610b5d576040517f08c379a0000000000000000000000000000000000000000000000000000000008152600401610b5490611cc7565b60405180910390fd5b60326000808673ffffffffffffffffffffffffffffffffffffffff1673ffffffffffffffffffffffffffffffffffffffff168152602001908152602001600020600201541015610be2576040517f08c379a0000000000000000000000000000000000000000000000000000000008152600401610bd990611d33565b60405180910390fd5b82471015610c25576040517f08c379a0000000000000000000000000000000000000000000000000000000008152600401610c1c906118d0565b60405180910390fd5b8373ffffffffffffffffffffffffffffffffffffffff166108fc849081150290604051600060405180830381858888f19350505050158015610c6b573d6000803e3d6000fd5b508260026000828254610c7e919061191f565b92505081905550600160008573ffffffffffffffffffffffffffffffffffffffff1673ffffffffffffffffffffffffffffffffffffffff1681526020019081526020016000206040518060a001604052808673ffffffffffffffffffffffffffffffffffffffff16815260200185815260200184815260200183815260200160001515815250908060018154018082558091505060019003906000526020600020906005020160009091909190915060008201518160000160006101000a81548173ffffffffffffffffffffffffffffffffffffffff021916908373ffffffffffffffffffffffffffffffffffffffff16021790555060208201518160010155604082015181600201556060820151816003015560808201518160040160006101000a81548160ff0219169083151502179055505050826000808673ffffffffffffffffffffffffffffffffffffffff1673ffffffffffffffffffffffffffffffffffffffff1681526020019081526020016000206003016000828254610e059190611bb9565b9250508190555050505050565b60036020528060005260406000206000915090508054610e3190611a41565b80601f0160208091040260200160405190810160405280929190818152602001828054610e5d90611a41565b8015610eaa5780601f10610e7f57610100808354040283529160200191610eaa565b820191906000526020600020905b815481529060010190602001808311610e8d57829003601f168201915b505050505081565b6060600160008373ffffffffffffffffffffffffffffffffffffffff1673ffffffffffffffffffffffffffffffffffffffff168152602001908152602001600020805480602002602001604051908101604052809291908181526020016000905b82821015610fd457838290600052602060002090600502016040518060a00160405290816000820160009054906101000a900473ffffffffffffffffffffffffffffffffffffffff1673ffffffffffffffffffffffffffffffffffffffff1673ffffffffffffffffffffffffffffffffffffffff1681526020016001820154815260200160028201548152602001600382015481526020016004820160009054906101000a900460ff16151515158152505081526020019060010190610f13565b505050509050919050565b3460026000828254610ff19190611bb9565b92505081905550565b82805461100690611a41565b90600052602060002090601f016020900481019282611028576000855561106f565b82601f1061104157805160ff191683800117855561106f565b8280016001018555821561106f579182015b8281111561106e578251825591602001919060010190611053565b5b50905061107c91906110c5565b5090565b6040518060a00160405280600073ffffffffffffffffffffffffffffffffffffffff168152602001606081526020016000815260200160008152602001600081525090565b5b808211156110de5760008160009055506001016110c6565b5090565b6000604051905090565b600080fd5b600080fd5b6000819050919050565b611109816110f6565b811461111457600080fd5b50565b60008135905061112681611100565b92915050565b600060208284031215611142576111416110ec565b5b600061115084828501611117565b91505092915050565b611162816110f6565b82525050565b600060208201905061117d6000830184611159565b92915050565b600080fd5b600080fd5b6000601f19601f8301169050919050565b7f4e487b7100000000000000000000000000000000000000000000000000000000600052604160045260246000fd5b6111d68261118d565b810181811067ffffffffffffffff821117156111f5576111f461119e565b5b80604052505050565b60006112086110e2565b905061121482826111cd565b919050565b600067ffffffffffffffff8211156112345761123361119e565b5b61123d8261118d565b9050602081019050919050565b82818337600083830152505050565b600061126c61126784611219565b6111fe565b90508281526020810184848401111561128857611287611188565b5b61129384828561124a565b509392505050565b600082601f8301126112b0576112af611183565b5b81356112c0848260208601611259565b91505092915050565b6000602082840312156112df576112de6110ec565b5b600082013567ffffffffffffffff8111156112fd576112fc6110f1565b5b6113098482850161129b565b91505092915050565b60008060408385031215611329576113286110ec565b5b600061133785828601611117565b925050602083013567ffffffffffffffff811115611358576113576110f1565b5b6113648582860161129b565b9150509250929050565b60008115159050919050565b6113838161136e565b82525050565b600060208201905061139e600083018461137a565b92915050565b600073ffffffffffffffffffffffffffffffffffffffff82169050919050565b60006113cf826113a4565b9050919050565b6113df816113c4565b81146113ea57600080fd5b50565b6000813590506113fc816113d6565b92915050565b600060208284031215611418576114176110ec565b5b6000611426848285016113ed565b91505092915050565b611438816113c4565b82525050565b600081519050919050565b600082825260208201905092915050565b60005b8381101561147857808201518184015260208101905061145d565b83811115611487576000848401525b50505050565b60006114988261143e565b6114a28185611449565b93506114b281856020860161145a565b6114bb8161118d565b840191505092915050565b6114cf816110f6565b82525050565b600060a0830160008301516114ed600086018261142f565b5060208301518482036020860152611505828261148d565b915050604083015161151a60408601826114c6565b50606083015161152d60608601826114c6565b50608083015161154060808601826114c6565b508091505092915050565b6000602082019050818103600083015261156581846114d5565b905092915050565b60008060408385031215611584576115836110ec565b5b6000611592858286016113ed565b92505060206115a385828601611117565b9150509250929050565b6115b6816113c4565b82525050565b600060a0820190506115d160008301886115ad565b6115de6020830187611159565b6115eb6040830186611159565b6115f86060830185611159565b611605608083018461137a565b9695505050505050565b600082825260208201905092915050565b600061162b8261143e565b611635818561160f565b935061164581856020860161145a565b61164e8161118d565b840191505092915050565b600060a08201905061166e60008301886115ad565b81810360208301526116808187611620565b905061168f6040830186611159565b61169c6060830185611159565b6116a96080830184611159565b9695505050505050565b600080600080608085870312156116cd576116cc6110ec565b5b60006116db878288016113ed565b94505060206116ec87828801611117565b93505060406116fd87828801611117565b925050606061170e87828801611117565b91505092959194509250565b600060208201905081810360008301526117348184611620565b905092915050565b600081519050919050565b600082825260208201905092915050565b6000819050602082019050919050565b6117718161136e565b82525050565b60a08201600082015161178d600085018261142f565b5060208201516117a060208501826114c6565b5060408201516117b360408501826114c6565b5060608201516117c660608501826114c6565b5060808201516117d96080850182611768565b50505050565b60006117eb8383611777565b60a08301905092915050565b6000602082019050919050565b600061180f8261173c565b6118198185611747565b935061182483611758565b8060005b8381101561185557815161183c88826117df565b9750611847836117f7565b925050600181019050611828565b5085935050505092915050565b6000602082019050818103600083015261187c8184611804565b905092915050565b7f496e73756666696369656e7420636f6d6d756e6974792066756e647300000000600082015250565b60006118ba601c8361160f565b91506118c582611884565b602082019050919050565b600060208201905081810360008301526118e9816118ad565b9050919050565b7f4e487b7100000000000000000000000000000000000000000000000000000000600052601160045260246000fd5b600061192a826110f6565b9150611935836110f6565b925082821015611948576119476118f0565b5b828203905092915050565b7f5573657220616c72656164792072656769737465726564000000000000000000600082015250565b600061198960178361160f565b915061199482611953565b602082019050919050565b600060208201905081810360008301526119b88161197c565b9050919050565b600081905092915050565b60006119d58261143e565b6119df81856119bf565b93506119ef81856020860161145a565b80840191505092915050565b6000611a0782846119ca565b915081905092915050565b7f4e487b7100000000000000000000000000000000000000000000000000000000600052602260045260246000fd5b60006002820490506001821680611a5957607f821691505b60208210811415611a6d57611a6c611a12565b5b50919050565b60008190508160005260206000209050919050565b60008154611a9581611a41565b611a9f81866119bf565b94506001821660008114611aba5760018114611acb57611afe565b60ff19831686528186019350611afe565b611ad485611a73565b60005b83811015611af657815481890152600182019150602081019050611ad7565b838801955050505b50505092915050565b6000611b138284611a88565b915081905092915050565b7f4e487b7100000000000000000000000000000000000000000000000000000000600052603260045260246000fd5b7f4c6f616e20616c72656164792072657061696400000000000000000000000000600082015250565b6000611b8360138361160f565b9150611b8e82611b4d565b602082019050919050565b60006020820190508181036000830152611bb281611b76565b9050919050565b6000611bc4826110f6565b9150611bcf836110f6565b9250827fffffffffffffffffffffffffffffffffffffffffffffffffffffffffffffffff03821115611c0457611c036118f0565b5b828201905092915050565b7f496e73756666696369656e742072657061796d656e7420616d6f756e74000000600082015250565b6000611c45601d8361160f565b9150611c5082611c0f565b602082019050919050565b60006020820190508181036000830152611c7481611c38565b9050919050565b7f426f72726f776572206e6f742072656769737465726564000000000000000000600082015250565b6000611cb160178361160f565b9150611cbc82611c7b565b602082019050919050565b60006020820190508181036000830152611ce081611ca4565b9050919050565b7f426f72726f77657220686173206c6f77206372656469742073636f7265000000600082015250565b6000611d1d601d8361160f565b9150611d2882611ce7565b602082019050919050565b60006020820190508181036000830152611d4c81611d10565b905091905056fea26469706673582212204dd307c6061ec43ea64acdfcff4f2a38ea60bf1bbf78a8cf97c2fe81263d605764736f6c63430008090033",
  "linkReferences": {},
  "deployedLinkReferences": {}
}