{
  "_format": "hh-sol-artifact-1",
  "contractName": "CommunityLending",
  "sourceName": "contracts/CommunityLending.sol",
  "abi": [
    {
      "inputs": [],
      "name": "communityFunds",
      "outputs": [
        {
          "internalType": "uint256",
          "name": "",
          "type": "uint256"
        }
      ],
      "stateMutability": "view",
      "type": "function"
    },
    {
      "inputs": [],
      "name": "depositFunds",
      "outputs": [],
      "stateMutability": "payable",
      "type": "function"
    },
    {
      "inputs": [],
      "name": "getContractBalance",
      "outputs": [
        {
          "internalType": "uint256",
          "name": "",
          "type": "uint256"
        }
      ],
      "stateMutability": "view",
      "type": "function"
    },
    {
      "inputs": [
        {
          "internalType": "address",
          "name": "_borrower",
          "type": "address"
        }
      ],
      "name": "getLoans",
      "outputs": [
        {
          "components": [
            {
              "internalType": "address",
              "name": "borrower",
              "type": "address"
            },
            {
              "internalType": "uint256",
              "name": "amount",
              "type": "uint256"
            },
            {
              "internalType": "uint256",
              "name": "interest",
              "type": "uint256"
            },
            {
              "internalType": "uint256",
              "name": "dueDate",
              "type": "uint256"
            },
            {
              "internalType": "bool",
              "name": "repaid",
              "type": "bool"
            }
          ],
          "internalType": "struct CommunityLending.Loan[]",
          "name": "",
          "type": "tuple[]"
        }
      ],
      "stateMutability": "view",
      "type": "function"
    },
    {
      "inputs": [
        {
          "internalType": "address",
          "name": "_wallet",
          "type": "address"
        }
      ],
      "name": "getUserProfile",
      "outputs": [
        {
          "components": [
            {
              "internalType": "address",
              "name": "wallet",
              "type": "address"
            },
            {
              "internalType": "string",
              "name": "name",
              "type": "string"
            },
            {
              "internalType": "uint256",
              "name": "creditScore",
              "type": "uint256"
            },
            {
              "internalType": "uint256",
              "name": "totalBorrowed",
              "type": "uint256"
            },
            {
              "internalType": "uint256",
              "name": "totalRepaid",
              "type": "uint256"
            }
          ],
          "internalType": "struct CommunityLending.User",
          "name": "",
          "type": "tuple"
        }
      ],
      "stateMutability": "view",
      "type": "function"
    },
    {
      "inputs": [
        {
          "internalType": "address",
          "name": "_borrower",
          "type": "address"
        },
        {
          "internalType": "uint256",
          "name": "_amount",
          "type": "uint256"
        },
        {
          "internalType": "uint256",
          "name": "_interest",
          "type": "uint256"
        },
        {
          "internalType": "uint256",
          "name": "_dueDate",
          "type": "uint256"
        }
      ],
      "name": "lendMoney",
      "outputs": [],
      "stateMutability": "payable",
      "type": "function"
    },
    {
      "inputs": [
        {
          "internalType": "address",
          "name": "",
          "type": "address"
        },
        {
          "internalType": "uint256",
          "name": "",
          "type": "uint256"
        }
      ],
      "name": "loans",
      "outputs": [
        {
          "internalType": "address",
          "name": "borrower",
          "type": "address"
        },
        {
          "internalType": "uint256",
          "name": "amount",
          "type": "uint256"
        },
        {
          "internalType": "uint256",
          "name": "interest",
          "type": "uint256"
        },
        {
          "internalType": "uint256",
          "name": "dueDate",
          "type": "uint256"
        },
        {
          "internalType": "bool",
          "name": "repaid",
          "type": "bool"
        }
      ],
      "stateMutability": "view",
      "type": "function"
    },
    {
      "inputs": [
        {
          "internalType": "string",
          "name": "_name",
          "type": "string"
        }
      ],
      "name": "registerUser",
      "outputs": [],
      "stateMutability": "nonpayable",
      "type": "function"
    },
    {
      "inputs": [
        {
          "internalType": "uint256",
          "name": "_loanIndex",
          "type": "uint256"
        }
      ],
      "name": "repayLoan",
      "outputs": [],
      "stateMutability": "payable",
      "type": "function"
    },
    {
      "inputs": [
        {
          "internalType": "address",
          "name": "",
          "type": "address"
        }
      ],
      "name": "users",
      "outputs": [
        {
          "internalType": "address",
          "name": "wallet",
          "type": "address"
        },
        {
          "internalType": "string",
          "name": "name",
          "type": "string"
        },
        {
          "internalType": "uint256",
          "name": "creditScore",
          "type": "uint256"
        },
        {
          "internalType": "uint256",
          "name": "totalBorrowed",
          "type": "uint256"
        },
        {
          "internalType": "uint256",
          "name": "totalRepaid",
          "type": "uint256"
        }
      ],
      "stateMutability": "view",
      "type": "function"
    },
    {
      "inputs": [
        {
          "internalType": "uint256",
          "name": "_amount",
          "type": "uint256"
        }
      ],
      "name": "withdrawFunds",
      "outputs": [],
      "stateMutability": "payable",
      "type": "function"
    }
  ],
  "bytecode": "0x608060405234801561001057600080fd5b50611a29806100206000396000f3fe60806040526004361061009c5760003560e01c806398c61c371161006457806398c61c3714610179578063a87430ba146101ba578063ab7b1c89146101fb578063b1eb320e14610217578063d988ef2014610233578063e2c41dbc146102705761009c565b8063155dd5ee146100a15780635caef00a146100bd5780636f9fb98a146100e8578063704f1b9414610113578063987ee1561461013c575b600080fd5b6100bb60048036038101906100b69190610f63565b61027a565b005b3480156100c957600080fd5b506100d2610322565b6040516100df9190610f9f565b60405180910390f35b3480156100f457600080fd5b506100fd610328565b60405161010a9190610f9f565b60405180910390f35b34801561011f57600080fd5b5061013a60048036038101906101359190611100565b610330565b005b34801561014857600080fd5b50610163600480360381019061015e91906111a7565b610506565b60405161017091906112f0565b60405180910390f35b34801561018557600080fd5b506101a0600480360381019061019b9190611312565b610664565b6040516101b195949392919061137c565b60405180910390f35b3480156101c657600080fd5b506101e160048036038101906101dc91906111a7565b6106e4565b6040516101f2959493929190611419565b60405180910390f35b61021560048036038101906102109190610f63565b6107c2565b005b610231600480360381019061022c9190611473565b610963565b005b34801561023f57600080fd5b5061025a600480360381019061025591906111a7565b610ce9565b6040516102679190611600565b60405180910390f35b610278610e16565b005b8060025410156102bf576040517f08c379a00000000000000000000000000000000000000000000000000000000081526004016102b69061166e565b60405180910390fd5b80600260008282546102d191906116bd565b925050819055503373ffffffffffffffffffffffffffffffffffffffff166108fc829081150290604051600060405180830381858888f1935050505015801561031e573d6000803e3d6000fd5b5050565b60025481565b600047905090565b600073ffffffffffffffffffffffffffffffffffffffff166000803373ffffffffffffffffffffffffffffffffffffffff1673ffffffffffffffffffffffffffffffffffffffff16815260200190815260200160002060000160009054906101000a900473ffffffffffffffffffffffffffffffffffffffff1673ffffffffffffffffffffffffffffffffffffffff1614610400576040517f08c379a00000000000000000000000000000000000000000000000000000000081526004016103f79061173d565b60405180910390fd5b6040518060a001604052803373ffffffffffffffffffffffffffffffffffffffff168152602001828152602001606481526020016000815260200160008152506000803373ffffffffffffffffffffffffffffffffffffffff1673ffffffffffffffffffffffffffffffffffffffff16815260200190815260200160002060008201518160000160006101000a81548173ffffffffffffffffffffffffffffffffffffffff021916908373ffffffffffffffffffffffffffffffffffffffff16021790555060208201518160010190805190602001906104e1929190610e31565b5060408201518160020155606082015181600301556080820151816004015590505050565b61050e610eb7565b6000808373ffffffffffffffffffffffffffffffffffffffff1673ffffffffffffffffffffffffffffffffffffffff1681526020019081526020016000206040518060a00160405290816000820160009054906101000a900473ffffffffffffffffffffffffffffffffffffffff1673ffffffffffffffffffffffffffffffffffffffff1673ffffffffffffffffffffffffffffffffffffffff1681526020016001820180546105bd9061178c565b80601f01602080910402602001604051908101604052809291908181526020018280546105e99061178c565b80156106365780601f1061060b57610100808354040283529160200191610636565b820191906000526020600020905b81548152906001019060200180831161061957829003601f168201915b5050505050815260200160028201548152602001600382015481526020016004820154815250509050919050565b6001602052816000526040600020818154811061068057600080fd5b9060005260206000209060050201600091509150508060000160009054906101000a900473ffffffffffffffffffffffffffffffffffffffff16908060010154908060020154908060030154908060040160009054906101000a900460ff16905085565b60006020528060005260406000206000915090508060000160009054906101000a900473ffffffffffffffffffffffffffffffffffffffff169080600101805461072d9061178c565b80601f01602080910402602001604051908101604052809291908181526020018280546107599061178c565b80156107a65780601f1061077b576101008083540402835291602001916107a6565b820191906000526020600020905b81548152906001019060200180831161078957829003601f168201915b5050505050908060020154908060030154908060040154905085565b6000600160003373ffffffffffffffffffffffffffffffffffffffff1673ffffffffffffffffffffffffffffffffffffffff1681526020019081526020016000208281548110610815576108146117be565b5b906000526020600020906005020190508060040160009054906101000a900460ff1615610877576040517f08c379a000000000000000000000000000000000000000000000000000000000815260040161086e90611839565b60405180910390fd5b8060020154816001015461088b9190611859565b3410156108cd576040517f08c379a00000000000000000000000000000000000000000000000000000000081526004016108c4906118fb565b60405180910390fd5b60018160040160006101000a81548160ff02191690831515021790555080600101546000803373ffffffffffffffffffffffffffffffffffffffff1673ffffffffffffffffffffffffffffffffffffffff168152602001908152602001600020600401600082825461093f9190611859565b9250508190555034600260008282546109589190611859565b925050819055505050565b600073ffffffffffffffffffffffffffffffffffffffff166000808673ffffffffffffffffffffffffffffffffffffffff1673ffffffffffffffffffffffffffffffffffffffff16815260200190815260200160002060000160009054906101000a900473ffffffffffffffffffffffffffffffffffffffff1673ffffffffffffffffffffffffffffffffffffffff161415610a34576040517f08c379a0000000000000000000000000000000000000000000000000000000008152600401610a2b90611967565b60405180910390fd5b60326000808673ffffffffffffffffffffffffffffffffffffffff1673ffffffffffffffffffffffffffffffffffffffff168152602001908152602001600020600201541015610ab9576040517f08c379a0000000000000000000000000000000000000000000000000000000008152600401610ab0906119d3565b60405180910390fd5b82471015610afc576040517f08c379a0000000000000000000000000000000000000000000000000000000008152600401610af39061166e565b60405180910390fd5b8373ffffffffffffffffffffffffffffffffffffffff166108fc849081150290604051600060405180830381858888f19350505050158015610b42573d6000803e3d6000fd5b508260026000828254610b5591906116bd565b92505081905550600160008573ffffffffffffffffffffffffffffffffffffffff1673ffffffffffffffffffffffffffffffffffffffff1681526020019081526020016000206040518060a001604052808673ffffffffffffffffffffffffffffffffffffffff16815260200185815260200184815260200183815260200160001515815250908060018154018082558091505060019003906000526020600020906005020160009091909190915060008201518160000160006101000a81548173ffffffffffffffffffffffffffffffffffffffff021916908373ffffffffffffffffffffffffffffffffffffffff16021790555060208201518160010155604082015181600201556060820151816003015560808201518160040160006101000a81548160ff0219169083151502179055505050826000808673ffffffffffffffffffffffffffffffffffffffff1673ffffffffffffffffffffffffffffffffffffffff1681526020019081526020016000206003016000828254610cdc9190611859565b9250508190555050505050565b6060600160008373ffffffffffffffffffffffffffffffffffffffff1673ffffffffffffffffffffffffffffffffffffffff168152602001908152602001600020805480602002602001604051908101604052809291908181526020016000905b82821015610e0b57838290600052602060002090600502016040518060a00160405290816000820160009054906101000a900473ffffffffffffffffffffffffffffffffffffffff1673ffffffffffffffffffffffffffffffffffffffff1673ffffffffffffffffffffffffffffffffffffffff1681526020016001820154815260200160028201548152602001600382015481526020016004820160009054906101000a900460ff16151515158152505081526020019060010190610d4a565b505050509050919050565b3460026000828254610e289190611859565b92505081905550565b828054610e3d9061178c565b90600052602060002090601f016020900481019282610e5f5760008555610ea6565b82601f10610e7857805160ff1916838001178555610ea6565b82800160010185558215610ea6579182015b82811115610ea5578251825591602001919060010190610e8a565b5b509050610eb39190610efc565b5090565b6040518060a00160405280600073ffffffffffffffffffffffffffffffffffffffff168152602001606081526020016000815260200160008152602001600081525090565b5b80821115610f15576000816000905550600101610efd565b5090565b6000604051905090565b600080fd5b600080fd5b6000819050919050565b610f4081610f2d565b8114610f4b57600080fd5b50565b600081359050610f5d81610f37565b92915050565b600060208284031215610f7957610f78610f23565b5b6000610f8784828501610f4e565b91505092915050565b610f9981610f2d565b82525050565b6000602082019050610fb46000830184610f90565b92915050565b600080fd5b600080fd5b6000601f19601f8301169050919050565b7f4e487b7100000000000000000000000000000000000000000000000000000000600052604160045260246000fd5b61100d82610fc4565b810181811067ffffffffffffffff8211171561102c5761102b610fd5565b5b80604052505050565b600061103f610f19565b905061104b8282611004565b919050565b600067ffffffffffffffff82111561106b5761106a610fd5565b5b61107482610fc4565b9050602081019050919050565b82818337600083830152505050565b60006110a361109e84611050565b611035565b9050828152602081018484840111156110bf576110be610fbf565b5b6110ca848285611081565b509392505050565b600082601f8301126110e7576110e6610fba565b5b81356110f7848260208601611090565b91505092915050565b60006020828403121561111657611115610f23565b5b600082013567ffffffffffffffff81111561113457611133610f28565b5b611140848285016110d2565b91505092915050565b600073ffffffffffffffffffffffffffffffffffffffff82169050919050565b600061117482611149565b9050919050565b61118481611169565b811461118f57600080fd5b50565b6000813590506111a18161117b565b92915050565b6000602082840312156111bd576111bc610f23565b5b60006111cb84828501611192565b91505092915050565b6111dd81611169565b82525050565b600081519050919050565b600082825260208201905092915050565b60005b8381101561121d578082015181840152602081019050611202565b8381111561122c576000848401525b50505050565b600061123d826111e3565b61124781856111ee565b93506112578185602086016111ff565b61126081610fc4565b840191505092915050565b61127481610f2d565b82525050565b600060a08301600083015161129260008601826111d4565b50602083015184820360208601526112aa8282611232565b91505060408301516112bf604086018261126b565b5060608301516112d2606086018261126b565b5060808301516112e5608086018261126b565b508091505092915050565b6000602082019050818103600083015261130a818461127a565b905092915050565b6000806040838503121561132957611328610f23565b5b600061133785828601611192565b925050602061134885828601610f4e565b9150509250929050565b61135b81611169565b82525050565b60008115159050919050565b61137681611361565b82525050565b600060a0820190506113916000830188611352565b61139e6020830187610f90565b6113ab6040830186610f90565b6113b86060830185610f90565b6113c5608083018461136d565b9695505050505050565b600082825260208201905092915050565b60006113eb826111e3565b6113f581856113cf565b93506114058185602086016111ff565b61140e81610fc4565b840191505092915050565b600060a08201905061142e6000830188611352565b818103602083015261144081876113e0565b905061144f6040830186610f90565b61145c6060830185610f90565b6114696080830184610f90565b9695505050505050565b6000806000806080858703121561148d5761148c610f23565b5b600061149b87828801611192565b94505060206114ac87828801610f4e565b93505060406114bd87828801610f4e565b92505060606114ce87828801610f4e565b91505092959194509250565b600081519050919050565b600082825260208201905092915050565b6000819050602082019050919050565b61150f81611361565b82525050565b60a08201600082015161152b60008501826111d4565b50602082015161153e602085018261126b565b506040820151611551604085018261126b565b506060820151611564606085018261126b565b5060808201516115776080850182611506565b50505050565b60006115898383611515565b60a08301905092915050565b6000602082019050919050565b60006115ad826114da565b6115b781856114e5565b93506115c2836114f6565b8060005b838110156115f35781516115da888261157d565b97506115e583611595565b9250506001810190506115c6565b5085935050505092915050565b6000602082019050818103600083015261161a81846115a2565b905092915050565b7f496e73756666696369656e7420636f6d6d756e6974792066756e647300000000600082015250565b6000611658601c836113cf565b915061166382611622565b602082019050919050565b600060208201905081810360008301526116878161164b565b9050919050565b7f4e487b7100000000000000000000000000000000000000000000000000000000600052601160045260246000fd5b60006116c882610f2d565b91506116d383610f2d565b9250828210156116e6576116e561168e565b5b828203905092915050565b7f5573657220616c72656164792072656769737465726564000000000000000000600082015250565b60006117276017836113cf565b9150611732826116f1565b602082019050919050565b600060208201905081810360008301526117568161171a565b9050919050565b7f4e487b7100000000000000000000000000000000000000000000000000000000600052602260045260246000fd5b600060028204905060018216806117a457607f821691505b602082108114156117b8576117b761175d565b5b50919050565b7f4e487b7100000000000000000000000000000000000000000000000000000000600052603260045260246000fd5b7f4c6f616e20616c72656164792072657061696400000000000000000000000000600082015250565b60006118236013836113cf565b915061182e826117ed565b602082019050919050565b6000602082019050818103600083015261185281611816565b9050919050565b600061186482610f2d565b915061186f83610f2d565b9250827fffffffffffffffffffffffffffffffffffffffffffffffffffffffffffffffff038211156118a4576118a361168e565b5b828201905092915050565b7f496e73756666696369656e742072657061796d656e7420616d6f756e74000000600082015250565b60006118e5601d836113cf565b91506118f0826118af565b602082019050919050565b60006020820190508181036000830152611914816118d8565b9050919050565b7f426f72726f776572206e6f742072656769737465726564000000000000000000600082015250565b60006119516017836113cf565b915061195c8261191b565b602082019050919050565b6000602082019050818103600083015261198081611944565b9050919050565b7f426f72726f77657220686173206c6f77206372656469742073636f7265000000600082015250565b60006119bd601d836113cf565b91506119c882611987565b602082019050919050565b600060208201905081810360008301526119ec816119b0565b905091905056fea26469706673582212208e33eb40b10df9cd1f9c3a2fc5c6998a00f9c8390521e5f5f506d8ceaf46cdc864736f6c63430008090033",
  "linkReferences": {},
  "deployedLinkReferences": {}
}