{
  "_format": "hh-sol-artifact-1",
  "contractName": "CommunityLending",
  "sourceName": "contracts/CommunityLending.sol",
  "abi": [
    {
      "inputs": [],
      "name": "communityFunds",
      "outputs": [
        {
          "internalType": "uint256",
          "name": "",
          "type": "uint256"
        }
      ],
      "stateMutability": "view",
      "type": "function"
    },
    {
      "inputs": [],
      "name": "depositFunds",
      "outputs": [],
      "stateMutability": "payable",
      "type": "function"
    },
    {
      "inputs": [],
      "name": "getContractBalance",
      "outputs": [
        {
          "internalType": "uint256",
          "name": "",
          "type": "uint256"
        }
      ],
      "stateMutability": "view",
      "type": "function"
    },
    {
      "inputs": [
        {
          "internalType": "address",
          "name": "_borrower",
          "type": "address"
        }
      ],
      "name": "getLoans",
      "outputs": [
        {
          "components": [
            {
              "internalType": "address",
              "name": "borrower",
              "type": "address"
            },
            {
              "internalType": "uint256",
              "name": "amount",
              "type": "uint256"
            },
            {
              "internalType": "uint256",
              "name": "interest",
              "type": "uint256"
            },
            {
              "internalType": "uint256",
              "name": "dueDate",
              "type": "uint256"
            },
            {
              "internalType": "bool",
              "name": "repaid",
              "type": "bool"
            }
          ],
          "internalType": "struct CommunityLending.Loan[]",
          "name": "",
          "type": "tuple[]"
        }
      ],
      "stateMutability": "view",
      "type": "function"
    },
    {
      "inputs": [
        {
          "internalType": "address",
          "name": "_wallet",
          "type": "address"
        }
      ],
      "name": "getUserProfile",
      "outputs": [
        {
          "components": [
            {
              "internalType": "address",
              "name": "wallet",
              "type": "address"
            },
            {
              "internalType": "string",
              "name": "name",
              "type": "string"
            },
            {
              "internalType": "uint256",
              "name": "creditScore",
              "type": "uint256"
            },
            {
              "internalType": "uint256",
              "name": "totalBorrowed",
              "type": "uint256"
            },
            {
              "internalType": "uint256",
              "name": "totalRepaid",
              "type": "uint256"
            }
          ],
          "internalType": "struct CommunityLending.User",
          "name": "",
          "type": "tuple"
        }
      ],
      "stateMutability": "view",
      "type": "function"
    },
    {
      "inputs": [
        {
          "internalType": "address",
          "name": "_borrower",
          "type": "address"
        },
        {
          "internalType": "uint256",
          "name": "_amount",
          "type": "uint256"
        },
        {
          "internalType": "uint256",
          "name": "_interest",
          "type": "uint256"
        },
        {
          "internalType": "uint256",
          "name": "_dueDate",
          "type": "uint256"
        }
      ],
      "name": "lendMoney",
      "outputs": [],
      "stateMutability": "nonpayable",
      "type": "function"
    },
    {
      "inputs": [
        {
          "internalType": "address",
          "name": "",
          "type": "address"
        },
        {
          "internalType": "uint256",
          "name": "",
          "type": "uint256"
        }
      ],
      "name": "loans",
      "outputs": [
        {
          "internalType": "address",
          "name": "borrower",
          "type": "address"
        },
        {
          "internalType": "uint256",
          "name": "amount",
          "type": "uint256"
        },
        {
          "internalType": "uint256",
          "name": "interest",
          "type": "uint256"
        },
        {
          "internalType": "uint256",
          "name": "dueDate",
          "type": "uint256"
        },
        {
          "internalType": "bool",
          "name": "repaid",
          "type": "bool"
        }
      ],
      "stateMutability": "view",
      "type": "function"
    },
    {
      "inputs": [
        {
          "internalType": "string",
          "name": "_name",
          "type": "string"
        }
      ],
      "name": "registerUser",
      "outputs": [],
      "stateMutability": "nonpayable",
      "type": "function"
    },
    {
      "inputs": [
        {
          "internalType": "uint256",
          "name": "_loanIndex",
          "type": "uint256"
        }
      ],
      "name": "repayLoan",
      "outputs": [],
      "stateMutability": "payable",
      "type": "function"
    },
    {
      "inputs": [
        {
          "internalType": "address",
          "name": "",
          "type": "address"
        }
      ],
      "name": "users",
      "outputs": [
        {
          "internalType": "address",
          "name": "wallet",
          "type": "address"
        },
        {
          "internalType": "string",
          "name": "name",
          "type": "string"
        },
        {
          "internalType": "uint256",
          "name": "creditScore",
          "type": "uint256"
        },
        {
          "internalType": "uint256",
          "name": "totalBorrowed",
          "type": "uint256"
        },
        {
          "internalType": "uint256",
          "name": "totalRepaid",
          "type": "uint256"
        }
      ],
      "stateMutability": "view",
      "type": "function"
    },
    {
      "inputs": [
        {
          "internalType": "uint256",
          "name": "_amount",
          "type": "uint256"
        }
      ],
      "name": "withdrawFunds",
      "outputs": [],
      "stateMutability": "payable",
      "type": "function"
    }
  ],
  "bytecode": "0x608060405234801561001057600080fd5b50611a36806100206000396000f3fe60806040526004361061009c5760003560e01c806398c61c371161006457806398c61c3714610179578063a87430ba146101ba578063ab7b1c89146101fb578063b1eb320e14610217578063d988ef2014610240578063e2c41dbc1461027d5761009c565b8063155dd5ee146100a15780635caef00a146100bd5780636f9fb98a146100e8578063704f1b9414610113578063987ee1561461013c575b600080fd5b6100bb60048036038101906100b69190610f70565b610287565b005b3480156100c957600080fd5b506100d261032f565b6040516100df9190610fac565b60405180910390f35b3480156100f457600080fd5b506100fd610335565b60405161010a9190610fac565b60405180910390f35b34801561011f57600080fd5b5061013a6004803603810190610135919061110d565b61033d565b005b34801561014857600080fd5b50610163600480360381019061015e91906111b4565b610513565b60405161017091906112fd565b60405180910390f35b34801561018557600080fd5b506101a0600480360381019061019b919061131f565b610671565b6040516101b1959493929190611389565b60405180910390f35b3480156101c657600080fd5b506101e160048036038101906101dc91906111b4565b6106f1565b6040516101f2959493929190611426565b60405180910390f35b61021560048036038101906102109190610f70565b6107cf565b005b34801561022357600080fd5b5061023e60048036038101906102399190611480565b610970565b005b34801561024c57600080fd5b50610267600480360381019061026291906111b4565b610cf6565b604051610274919061160d565b60405180910390f35b610285610e23565b005b8060025410156102cc576040517f08c379a00000000000000000000000000000000000000000000000000000000081526004016102c39061167b565b60405180910390fd5b80600260008282546102de91906116ca565b925050819055503373ffffffffffffffffffffffffffffffffffffffff166108fc829081150290604051600060405180830381858888f1935050505015801561032b573d6000803e3d6000fd5b5050565b60025481565b600047905090565b600073ffffffffffffffffffffffffffffffffffffffff166000803373ffffffffffffffffffffffffffffffffffffffff1673ffffffffffffffffffffffffffffffffffffffff16815260200190815260200160002060000160009054906101000a900473ffffffffffffffffffffffffffffffffffffffff1673ffffffffffffffffffffffffffffffffffffffff161461040d576040517f08c379a00000000000000000000000000000000000000000000000000000000081526004016104049061174a565b60405180910390fd5b6040518060a001604052803373ffffffffffffffffffffffffffffffffffffffff168152602001828152602001606481526020016000815260200160008152506000803373ffffffffffffffffffffffffffffffffffffffff1673ffffffffffffffffffffffffffffffffffffffff16815260200190815260200160002060008201518160000160006101000a81548173ffffffffffffffffffffffffffffffffffffffff021916908373ffffffffffffffffffffffffffffffffffffffff16021790555060208201518160010190805190602001906104ee929190610e3e565b5060408201518160020155606082015181600301556080820151816004015590505050565b61051b610ec4565b6000808373ffffffffffffffffffffffffffffffffffffffff1673ffffffffffffffffffffffffffffffffffffffff1681526020019081526020016000206040518060a00160405290816000820160009054906101000a900473ffffffffffffffffffffffffffffffffffffffff1673ffffffffffffffffffffffffffffffffffffffff1673ffffffffffffffffffffffffffffffffffffffff1681526020016001820180546105ca90611799565b80601f01602080910402602001604051908101604052809291908181526020018280546105f690611799565b80156106435780601f1061061857610100808354040283529160200191610643565b820191906000526020600020905b81548152906001019060200180831161062657829003601f168201915b5050505050815260200160028201548152602001600382015481526020016004820154815250509050919050565b6001602052816000526040600020818154811061068d57600080fd5b9060005260206000209060050201600091509150508060000160009054906101000a900473ffffffffffffffffffffffffffffffffffffffff16908060010154908060020154908060030154908060040160009054906101000a900460ff16905085565b60006020528060005260406000206000915090508060000160009054906101000a900473ffffffffffffffffffffffffffffffffffffffff169080600101805461073a90611799565b80601f016020809104026020016040519081016040528092919081815260200182805461076690611799565b80156107b35780601f10610788576101008083540402835291602001916107b3565b820191906000526020600020905b81548152906001019060200180831161079657829003601f168201915b5050505050908060020154908060030154908060040154905085565b6000600160003373ffffffffffffffffffffffffffffffffffffffff1673ffffffffffffffffffffffffffffffffffffffff1681526020019081526020016000208281548110610822576108216117cb565b5b906000526020600020906005020190508060040160009054906101000a900460ff1615610884576040517f08c379a000000000000000000000000000000000000000000000000000000000815260040161087b90611846565b60405180910390fd5b806002015481600101546108989190611866565b3410156108da576040517f08c379a00000000000000000000000000000000000000000000000000000000081526004016108d190611908565b60405180910390fd5b60018160040160006101000a81548160ff02191690831515021790555080600101546000803373ffffffffffffffffffffffffffffffffffffffff1673ffffffffffffffffffffffffffffffffffffffff168152602001908152602001600020600401600082825461094c9190611866565b9250508190555034600260008282546109659190611866565b925050819055505050565b600073ffffffffffffffffffffffffffffffffffffffff166000808673ffffffffffffffffffffffffffffffffffffffff1673ffffffffffffffffffffffffffffffffffffffff16815260200190815260200160002060000160009054906101000a900473ffffffffffffffffffffffffffffffffffffffff1673ffffffffffffffffffffffffffffffffffffffff161415610a41576040517f08c379a0000000000000000000000000000000000000000000000000000000008152600401610a3890611974565b60405180910390fd5b60326000808673ffffffffffffffffffffffffffffffffffffffff1673ffffffffffffffffffffffffffffffffffffffff168152602001908152602001600020600201541015610ac6576040517f08c379a0000000000000000000000000000000000000000000000000000000008152600401610abd906119e0565b60405180910390fd5b82471015610b09576040517f08c379a0000000000000000000000000000000000000000000000000000000008152600401610b009061167b565b60405180910390fd5b8373ffffffffffffffffffffffffffffffffffffffff166108fc849081150290604051600060405180830381858888f19350505050158015610b4f573d6000803e3d6000fd5b508260026000828254610b6291906116ca565b92505081905550600160008573ffffffffffffffffffffffffffffffffffffffff1673ffffffffffffffffffffffffffffffffffffffff1681526020019081526020016000206040518060a001604052808673ffffffffffffffffffffffffffffffffffffffff16815260200185815260200184815260200183815260200160001515815250908060018154018082558091505060019003906000526020600020906005020160009091909190915060008201518160000160006101000a81548173ffffffffffffffffffffffffffffffffffffffff021916908373ffffffffffffffffffffffffffffffffffffffff16021790555060208201518160010155604082015181600201556060820151816003015560808201518160040160006101000a81548160ff0219169083151502179055505050826000808673ffffffffffffffffffffffffffffffffffffffff1673ffffffffffffffffffffffffffffffffffffffff1681526020019081526020016000206003016000828254610ce99190611866565b9250508190555050505050565b6060600160008373ffffffffffffffffffffffffffffffffffffffff1673ffffffffffffffffffffffffffffffffffffffff168152602001908152602001600020805480602002602001604051908101604052809291908181526020016000905b82821015610e1857838290600052602060002090600502016040518060a00160405290816000820160009054906101000a900473ffffffffffffffffffffffffffffffffffffffff1673ffffffffffffffffffffffffffffffffffffffff1673ffffffffffffffffffffffffffffffffffffffff1681526020016001820154815260200160028201548152602001600382015481526020016004820160009054906101000a900460ff16151515158152505081526020019060010190610d57565b505050509050919050565b3460026000828254610e359190611866565b92505081905550565b828054610e4a90611799565b90600052602060002090601f016020900481019282610e6c5760008555610eb3565b82601f10610e8557805160ff1916838001178555610eb3565b82800160010185558215610eb3579182015b82811115610eb2578251825591602001919060010190610e97565b5b509050610ec09190610f09565b5090565b6040518060a00160405280600073ffffffffffffffffffffffffffffffffffffffff168152602001606081526020016000815260200160008152602001600081525090565b5b80821115610f22576000816000905550600101610f0a565b5090565b6000604051905090565b600080fd5b600080fd5b6000819050919050565b610f4d81610f3a565b8114610f5857600080fd5b50565b600081359050610f6a81610f44565b92915050565b600060208284031215610f8657610f85610f30565b5b6000610f9484828501610f5b565b91505092915050565b610fa681610f3a565b82525050565b6000602082019050610fc16000830184610f9d565b92915050565b600080fd5b600080fd5b6000601f19601f8301169050919050565b7f4e487b7100000000000000000000000000000000000000000000000000000000600052604160045260246000fd5b61101a82610fd1565b810181811067ffffffffffffffff8211171561103957611038610fe2565b5b80604052505050565b600061104c610f26565b90506110588282611011565b919050565b600067ffffffffffffffff82111561107857611077610fe2565b5b61108182610fd1565b9050602081019050919050565b82818337600083830152505050565b60006110b06110ab8461105d565b611042565b9050828152602081018484840111156110cc576110cb610fcc565b5b6110d784828561108e565b509392505050565b600082601f8301126110f4576110f3610fc7565b5b813561110484826020860161109d565b91505092915050565b60006020828403121561112357611122610f30565b5b600082013567ffffffffffffffff81111561114157611140610f35565b5b61114d848285016110df565b91505092915050565b600073ffffffffffffffffffffffffffffffffffffffff82169050919050565b600061118182611156565b9050919050565b61119181611176565b811461119c57600080fd5b50565b6000813590506111ae81611188565b92915050565b6000602082840312156111ca576111c9610f30565b5b60006111d88482850161119f565b91505092915050565b6111ea81611176565b82525050565b600081519050919050565b600082825260208201905092915050565b60005b8381101561122a57808201518184015260208101905061120f565b83811115611239576000848401525b50505050565b600061124a826111f0565b61125481856111fb565b935061126481856020860161120c565b61126d81610fd1565b840191505092915050565b61128181610f3a565b82525050565b600060a08301600083015161129f60008601826111e1565b50602083015184820360208601526112b7828261123f565b91505060408301516112cc6040860182611278565b5060608301516112df6060860182611278565b5060808301516112f26080860182611278565b508091505092915050565b600060208201905081810360008301526113178184611287565b905092915050565b6000806040838503121561133657611335610f30565b5b60006113448582860161119f565b925050602061135585828601610f5b565b9150509250929050565b61136881611176565b82525050565b60008115159050919050565b6113838161136e565b82525050565b600060a08201905061139e600083018861135f565b6113ab6020830187610f9d565b6113b86040830186610f9d565b6113c56060830185610f9d565b6113d2608083018461137a565b9695505050505050565b600082825260208201905092915050565b60006113f8826111f0565b61140281856113dc565b935061141281856020860161120c565b61141b81610fd1565b840191505092915050565b600060a08201905061143b600083018861135f565b818103602083015261144d81876113ed565b905061145c6040830186610f9d565b6114696060830185610f9d565b6114766080830184610f9d565b9695505050505050565b6000806000806080858703121561149a57611499610f30565b5b60006114a88782880161119f565b94505060206114b987828801610f5b565b93505060406114ca87828801610f5b565b92505060606114db87828801610f5b565b91505092959194509250565b600081519050919050565b600082825260208201905092915050565b6000819050602082019050919050565b61151c8161136e565b82525050565b60a08201600082015161153860008501826111e1565b50602082015161154b6020850182611278565b50604082015161155e6040850182611278565b5060608201516115716060850182611278565b5060808201516115846080850182611513565b50505050565b60006115968383611522565b60a08301905092915050565b6000602082019050919050565b60006115ba826114e7565b6115c481856114f2565b93506115cf83611503565b8060005b838110156116005781516115e7888261158a565b97506115f2836115a2565b9250506001810190506115d3565b5085935050505092915050565b6000602082019050818103600083015261162781846115af565b905092915050565b7f496e73756666696369656e7420636f6d6d756e6974792066756e647300000000600082015250565b6000611665601c836113dc565b91506116708261162f565b602082019050919050565b6000602082019050818103600083015261169481611658565b9050919050565b7f4e487b7100000000000000000000000000000000000000000000000000000000600052601160045260246000fd5b60006116d582610f3a565b91506116e083610f3a565b9250828210156116f3576116f261169b565b5b828203905092915050565b7f5573657220616c72656164792072656769737465726564000000000000000000600082015250565b60006117346017836113dc565b915061173f826116fe565b602082019050919050565b6000602082019050818103600083015261176381611727565b9050919050565b7f4e487b7100000000000000000000000000000000000000000000000000000000600052602260045260246000fd5b600060028204905060018216806117b157607f821691505b602082108114156117c5576117c461176a565b5b50919050565b7f4e487b7100000000000000000000000000000000000000000000000000000000600052603260045260246000fd5b7f4c6f616e20616c72656164792072657061696400000000000000000000000000600082015250565b60006118306013836113dc565b915061183b826117fa565b602082019050919050565b6000602082019050818103600083015261185f81611823565b9050919050565b600061187182610f3a565b915061187c83610f3a565b9250827fffffffffffffffffffffffffffffffffffffffffffffffffffffffffffffffff038211156118b1576118b061169b565b5b828201905092915050565b7f496e73756666696369656e742072657061796d656e7420616d6f756e74000000600082015250565b60006118f2601d836113dc565b91506118fd826118bc565b602082019050919050565b60006020820190508181036000830152611921816118e5565b9050919050565b7f426f72726f776572206e6f742072656769737465726564000000000000000000600082015250565b600061195e6017836113dc565b915061196982611928565b602082019050919050565b6000602082019050818103600083015261198d81611951565b9050919050565b7f426f72726f77657220686173206c6f77206372656469742073636f7265000000600082015250565b60006119ca601d836113dc565b91506119d582611994565b602082019050919050565b600060208201905081810360008301526119f9816119bd565b905091905056fea2646970667358221220df3c03c901ac228786690b009f4ada561e5d4837e0790f9e8ccfe73dce863a0d64736f6c63430008090033",
  "linkReferences": {},
  "deployedLinkReferences": {}
}